:020000001628C0
:0E0006008312031335088A00340882000800B4
:1000140003208A110A128000840AB40A0319B50A5B
:08002400F003031D0A28080087
:10002C0083120313A001A101A201A3018030A4003B
:10003C00A5014030A600A7012030A800A90110306E
:10004C00AA00AB010830AC00AD010430AE00AF012A
:10005C000230B000B1010130B200B30183168E152D
:10006C00073083129F00803083168500860183122F
:10007C000518512800302106031D462800302006A3
:10008C00031D4C28A20A0319A30A50280130A2020E
:10009C00031CA30351282208F0002308F100F00DE3
:1000AC00F10D70107008243E8400000886000630A4
:1000BC00FB001330FC00AD30FD00FD0B6328FC0B86
:1000CC006328FB0B63280000000000302306031D8F
:1000DC00712807302206031D77280130A00000305C
:1000EC00A10000302306031D7D2800302206031DCD
:0A00FC008128A001A1013D288228FF
:02400E006A2125
:00000001FF
