:020000001628C0
:0E0006008312031323088A00220882000800D8
:1000140003208A110A128000840AA20A0319A30A7F
:08002400F003031D0A28080087
:10002C00013083120313A000A10183168E15073033
:10003C0083129F0080308316850086018312051C75
:10004C0042282008F1002108F200F10DF20D711088
:10005C007108A0007208A10080307206F000803098
:10006C007002031D3B2880307102031C41280130B3
:10007C00A0000030A1005D282008F1002108F2004A
:10008C00F20CF10CF213721BF2177108A00072083B
:10009C00A1008030F000803072067002031D5828D9
:1000AC007108013C031C5D288030A000A1012008D0
:1000BC0086000630FB001330FC00AD30FD00FD0B5C
:1000CC006528FC0B6528FB0B652800000000242824
:0200DC006E288C
:02400E006A2125
:00000001FF
