:020000001628C0
:0E0006008312031329088A00280882000800CC
:1000140003208A110A128000840AA80A0319A90A73
:08002400F003031D0A28080087
:10002C0083120313A001A101A201A301A401A50144
:10003C00A601A70183168E15860183128601F03066
:10004C00831685008312051F3228A401A501A60181
:10005C00A701A001A1013F28851E3F282208013CD1
:10006C00A2002308031C013EA301A302851E3F2806
:10007C003C2800302306031D452801302206031DB1
:10008C0090280230FB000430FC00BA30FD00FD0B60
:10009C004D28FC0B4D28FB0B4D280000A40A03191E
:1000AC00A50A00302506031D5D280A302406031D11
:1000BC006428A401A501A60A0319A70A0030270683
:1000CC00031D6A280A302606031D7328A601A70102
:1000DC00A00A0319A10A2008850000302106031D7F
:1000EC0079280A302006031D8228A401A501A60147
:1000FC00A701A001A10185010430F1002408F00042
:10010C00710803198D28F00D7010FF3E8728260802
:08011C007007860028289128D5
:02400E00192176
:00000001FF
