:02000000502886
:10000800FF00030E8301A8000A08A7008A017008F0
:10001800A0004120C2308F00F7308E000C1020085D
:10002800F00027088A00280E8300FF0E7F0E0900C3
:0E0038008312031326088A00250882000800A0
:100046001C208A110A128000840AA50A0319A60A2E
:08005600F003031D232808003C
:10005E00831203132D08F000F00D7010F00D7010C8
:10006E00F00D7010F00D70102C08700786002B0824
:04007E0085000800F1
:1000820083120313A30A23080A3A031D4F28A3016C
:0E009200A20A22080A3A031D4F28A201080004
:1000A00083120313A101A201A301A40183168E11DF
:1000B0006030850086018312850186019016101636
:1000C0009010C2308F00F7308E0010148B178316FB
:1000D0000C140B1783122408003A031D7F28851E79
:1000E0007F282108093A031D7828A901AA017D2843
:1000F0002108013EA9000030AA002908A100051F1F
:100100008228A1010030851A0130A4002208AB002A
:0E0110002308AC002108AD002F206A288E289D
:02400E00592136
:00000001FF
