:02000000412895
:0E000600831203132D088A002C0882000800C4
:1000140003208A110A128000840AAC0A0319AD0A6B
:08002400F003031D0A28080087
:10002C0083120313FB01FA01F9018030F800F10C83
:10003C00F00C031C2A287408F90775080318750FAF
:10004C00FA070318FB0A0310F01F32287408FA078A
:10005C0075080318750FFB07FB0CFA0CF90CF80C60
:10006C00031C1D287B08F3007A08F2007908F100C4
:06007C007808F000080006
:1000820083120313A001A101A201A3010130A40064
:10009200A501A601A701A801A901AA01AB01831626
:1000A2008E15860183128601F03083168500831235
:1000B200051F6228A601A701A801A901AA01AB0197
:1000C2006F28851E6F282008013CA0002108031C10
:1000D200013EA101A102851E6F286C280030210675
:1000E200031D752801302006031DDB28A201A30190
:1000F20080302306F000803025067002031D83281D
:1001020024082202031892281A30FC00F830FD005D
:10011200FD0B8928FC0B89280000A20A0319A30AF7
:100122007928A60A0319A70A00302706031D9B286F
:100132000A302606031DA228A601A701A80A031950
:10014200A90A00302906031DA8280A302806031D23
:10015200B128A801A901AA0A0319AB0A2A08850035
:1001620000302B06031DB7280A302A06031DCD28AE
:10017200A601A701A801A901AA01AB0185012408D2
:10018200F0002508F1000A30F4000030F5001620D6
:100192007008A4007108A5000430F1002608F000E0
:1001A20071080319D828F00D7010FF3ED2282808D4
:0801B200700786005828DC28C4
:02400E00192176
:00000001FF
